{"abi":[{"type":"constructor","inputs":[{"name":"initialFeeRecipient","type":"address","internalType":"address"}],"stateMutability":"payable"},{"type":"receive","stateMutability":"payable"},{"type":"function","name":"balances","inputs":[{"name":"","type":"address","internalType":"address"}],"outputs":[{"name":"","type":"uint256","internalType":"uint256"}],"stateMutability":"view"},{"type":"function","name":"deposit","inputs":[],"outputs":[],"stateMutability":"payable"},{"type":"function","name":"feeBalance","inputs":[],"outputs":[{"name":"","type":"uint256","internalType":"uint256"}],"stateMutability":"view"},{"type":"function","name":"feeRecipient","inputs":[],"outputs":[{"name":"","type":"address","internalType":"address"}],"stateMutability":"view"},{"type":"function","name":"implementation","inputs":[],"outputs":[{"name":"","type":"address","internalType":"address"}],"stateMutability":"view"},{"type":"function","name":"owner","inputs":[],"outputs":[{"name":"","type":"address","internalType":"address"}],"stateMutability":"view"},{"type":"function","name":"pause","inputs":[],"outputs":[],"stateMutability":"nonpayable"},{"type":"function","name":"paused","inputs":[],"outputs":[{"name":"","type":"bool","internalType":"bool"}],"stateMutability":"view"},{"type":"function","name":"setFeeRecipient","inputs":[{"name":"newFeeRecipient","type":"address","internalType":"address"}],"outputs":[],"stateMutability":"nonpayable"},{"type":"function","name":"unpause","inputs":[],"outputs":[],"stateMutability":"nonpayable"},{"type":"function","name":"upgradeTo","inputs":[{"name":"newImplementation","type":"address","internalType":"address"}],"outputs":[],"stateMutability":"nonpayable"},{"type":"function","name":"withdraw","inputs":[{"name":"amount","type":"uint256","internalType":"uint256"}],"outputs":[],"stateMutability":"nonpayable"},{"type":"function","name":"withdrawFees","inputs":[{"name":"amount","type":"uint256","internalType":"uint256"}],"outputs":[],"stateMutability":"nonpayable"}],"bytecode":{"object":"0x608060405260405161114e38038061114e83398181016040528101906100259190610108565b335f806101000a81548173ffffffffffffffffffffffffffffffffffffffff021916908373ffffffffffffffffffffffffffffffffffffffff1602179055508060015f6101000a81548173ffffffffffffffffffffffffffffffffffffffff021916908373ffffffffffffffffffffffffffffffffffffffff16021790555050610133565b5f80fd5b5f73ffffffffffffffffffffffffffffffffffffffff82169050919050565b5f6100d7826100ae565b9050919050565b6100e7816100cd565b81146100f1575f80fd5b50565b5f81519050610102816100de565b92915050565b5f6020828403121561011d5761011c6100aa565b5b5f61012a848285016100f4565b91505092915050565b61100e806101405f395ff3fe6080604052600436106100c5575f3560e01c80635c975abb1161007e5780638456cb59116100585780638456cb59146102595780638da5cb5b1461026f578063d0e30db014610299578063e74b981b146102a3576100e3565b80635c975abb146101dd5780635e318e071461020757806360b71d4e1461022f576100e3565b806327e235e3146100e75780632e1a7d4d146101235780633659cfe61461014b5780633f4ba83a1461017357806346904840146101895780635c60da1b146101b3576100e3565b366100e3573460035f8282546100db9190610af3565b925050819055005b5f80fd5b3480156100f2575f80fd5b5061010d60048036038101906101089190610b84565b6102cb565b60405161011a9190610bbe565b60405180910390f35b34801561012e575f80fd5b5061014960048036038101906101449190610c01565b6102e0565b005b348015610156575f80fd5b50610171600480360381019061016c9190610b84565b6104af565b005b34801561017e575f80fd5b5061018761057f565b005b348015610194575f80fd5b5061019d610628565b6040516101aa9190610c3b565b60405180910390f35b3480156101be575f80fd5b506101c761064d565b6040516101d49190610c3b565b60405180910390f35b3480156101e8575f80fd5b506101f1610672565b6040516101fe9190610c6e565b60405180910390f35b348015610212575f80fd5b5061022d60048036038101906102289190610c01565b610685565b005b34801561023a575f80fd5b5061024361083c565b6040516102509190610bbe565b60405180910390f35b348015610264575f80fd5b5061026d610842565b005b34801561027a575f80fd5b506102836108ec565b6040516102909190610c3b565b60405180910390f35b6102a161090f565b005b3480156102ae575f80fd5b506102c960048036038101906102c49190610b84565b6109ed565b005b6004602052805f5260405f205f915090505481565b600260149054906101000a900460ff1615610330576040517f08c379a000000000000000000000000000000000000000000000000000000000815260040161032790610ce1565b60405180910390fd5b8060045f3373ffffffffffffffffffffffffffffffffffffffff1673ffffffffffffffffffffffffffffffffffffffff1681526020019081526020015f205410156103b0576040517f08c379a00000000000000000000000000000000000000000000000000000000081526004016103a790610d49565b60405180910390fd5b8060045f3373ffffffffffffffffffffffffffffffffffffffff1673ffffffffffffffffffffffffffffffffffffffff1681526020019081526020015f205f8282546103fc9190610d67565b925050819055505f3373ffffffffffffffffffffffffffffffffffffffff168260405161042890610dc7565b5f6040518083038185875af1925050503d805f8114610462576040519150601f19603f3d011682016040523d82523d5f602084013e610467565b606091505b50509050806104ab576040517f08c379a00000000000000000000000000000000000000000000000000000000081526004016104a290610e25565b60405180910390fd5b5050565b5f8054906101000a900473ffffffffffffffffffffffffffffffffffffffff1673ffffffffffffffffffffffffffffffffffffffff163373ffffffffffffffffffffffffffffffffffffffff161461053c576040517f08c379a000000000000000000000000000000000000000000000000000000000815260040161053390610e8d565b60405180910390fd5b8060025f6101000a81548173ffffffffffffffffffffffffffffffffffffffff021916908373ffffffffffffffffffffffffffffffffffffffff16021790555050565b5f8054906101000a900473ffffffffffffffffffffffffffffffffffffffff1673ffffffffffffffffffffffffffffffffffffffff163373ffffffffffffffffffffffffffffffffffffffff161461060c576040517f08c379a000000000000000000000000000000000000000000000000000000000815260040161060390610e8d565b60405180910390fd5b5f600260146101000a81548160ff021916908315150217905550565b60015f9054906101000a900473ffffffffffffffffffffffffffffffffffffffff1681565b60025f9054906101000a900473ffffffffffffffffffffffffffffffffffffffff1681565b600260149054906101000a900460ff1681565b5f8054906101000a900473ffffffffffffffffffffffffffffffffffffffff1673ffffffffffffffffffffffffffffffffffffffff163373ffffffffffffffffffffffffffffffffffffffff1614610712576040517f08c379a000000000000000000000000000000000000000000000000000000000815260040161070990610e8d565b60405180910390fd5b600354811115610757576040517f08c379a000000000000000000000000000000000000000000000000000000000815260040161074e90610ef5565b60405180910390fd5b8060035f8282546107689190610d67565b925050819055505f60015f9054906101000a900473ffffffffffffffffffffffffffffffffffffffff1673ffffffffffffffffffffffffffffffffffffffff16826040516107b590610dc7565b5f6040518083038185875af1925050503d805f81146107ef576040519150601f19603f3d011682016040523d82523d5f602084013e6107f4565b606091505b5050905080610838576040517f08c379a000000000000000000000000000000000000000000000000000000000815260040161082f90610f5d565b60405180910390fd5b5050565b60035481565b5f8054906101000a900473ffffffffffffffffffffffffffffffffffffffff1673ffffffffffffffffffffffffffffffffffffffff163373ffffffffffffffffffffffffffffffffffffffff16146108cf576040517f08c379a00000000000000000000000000000000000000000000000000000000081526004016108c690610e8d565b60405180910390fd5b6001600260146101000a81548160ff021916908315150217905550565b5f8054906101000a900473ffffffffffffffffffffffffffffffffffffffff1681565b600260149054906101000a900460ff161561095f576040517f08c379a000000000000000000000000000000000000000000000000000000000815260040161095690610ce1565b60405180910390fd5b5f60643461096d9190610fa8565b90505f813461097c9190610d67565b90508060045f3373ffffffffffffffffffffffffffffffffffffffff1673ffffffffffffffffffffffffffffffffffffffff1681526020019081526020015f205f8282546109ca9190610af3565b925050819055508160035f8282546109e29190610af3565b925050819055505050565b5f8054906101000a900473ffffffffffffffffffffffffffffffffffffffff1673ffffffffffffffffffffffffffffffffffffffff163373ffffffffffffffffffffffffffffffffffffffff1614610a7a576040517f08c379a0000000000000000000000000000000000000000000000000000000008152600401610a7190610e8d565b60405180910390fd5b8060015f6101000a81548173ffffffffffffffffffffffffffffffffffffffff021916908373ffffffffffffffffffffffffffffffffffffffff16021790555050565b5f819050919050565b7f4e487b71000000000000000000000000000000000000000000000000000000005f52601160045260245ffd5b5f610afd82610abd565b9150610b0883610abd565b9250828201905080821115610b2057610b1f610ac6565b5b92915050565b5f80fd5b5f73ffffffffffffffffffffffffffffffffffffffff82169050919050565b5f610b5382610b2a565b9050919050565b610b6381610b49565b8114610b6d575f80fd5b50565b5f81359050610b7e81610b5a565b92915050565b5f60208284031215610b9957610b98610b26565b5b5f610ba684828501610b70565b91505092915050565b610bb881610abd565b82525050565b5f602082019050610bd15f830184610baf565b92915050565b610be081610abd565b8114610bea575f80fd5b50565b5f81359050610bfb81610bd7565b92915050565b5f60208284031215610c1657610c15610b26565b5b5f610c2384828501610bed565b91505092915050565b610c3581610b49565b82525050565b5f602082019050610c4e5f830184610c2c565b92915050565b5f8115159050919050565b610c6881610c54565b82525050565b5f602082019050610c815f830184610c5f565b92915050565b5f82825260208201905092915050565b7f70617573656400000000000000000000000000000000000000000000000000005f82015250565b5f610ccb600683610c87565b9150610cd682610c97565b602082019050919050565b5f6020820190508181035f830152610cf881610cbf565b9050919050565b7f696e73756666696369656e7400000000000000000000000000000000000000005f82015250565b5f610d33600c83610c87565b9150610d3e82610cff565b602082019050919050565b5f6020820190508181035f830152610d6081610d27565b9050919050565b5f610d7182610abd565b9150610d7c83610abd565b9250828203905081811115610d9457610d93610ac6565b5b92915050565b5f81905092915050565b50565b5f610db25f83610d9a565b9150610dbd82610da4565b5f82019050919050565b5f610dd182610da7565b9150819050919050565b7f7472616e73666572206661696c656400000000000000000000000000000000005f82015250565b5f610e0f600f83610c87565b9150610e1a82610ddb565b602082019050919050565b5f6020820190508181035f830152610e3c81610e03565b9050919050565b7f6f776e6572206f6e6c79000000000000000000000000000000000000000000005f82015250565b5f610e77600a83610c87565b9150610e8282610e43565b602082019050919050565b5f6020820190508181035f830152610ea481610e6b565b9050919050565b7f6665652062616c616e63650000000000000000000000000000000000000000005f82015250565b5f610edf600b83610c87565b9150610eea82610eab565b602082019050919050565b5f6020820190508181035f830152610f0c81610ed3565b9050919050565b7f666565207472616e73666572206661696c6564000000000000000000000000005f82015250565b5f610f47601383610c87565b9150610f5282610f13565b602082019050919050565b5f6020820190508181035f830152610f7481610f3b565b9050919050565b7f4e487b71000000000000000000000000000000000000000000000000000000005f52601260045260245ffd5b5f610fb282610abd565b9150610fbd83610abd565b925082610fcd57610fcc610f7b565b5b82820490509291505056fea26469706673582212208ecd09fea80e3f1c907a782e9a8c6214a30ab197e65d508b3fff8c45a3e7954c64736f6c634300081a0033","linkReferences":{}},"methodIdentifiers":{"balances(address)":"27e235e3","deposit()":"d0e30db0","feeBalance()":"60b71d4e","feeRecipient()":"46904840","implementation()":"5c60da1b","owner()":"8da5cb5b","pause()":"8456cb59","paused()":"5c975abb","setFeeRecipient(address)":"e74b981b","unpause()":"3f4ba83a","upgradeTo(address)":"3659cfe6","withdraw(uint256)":"2e1a7d4d","withdrawFees(uint256)":"5e318e07"},"id":0}